:020000020000FC
:100000000FEF0DBF18E01EBF3F065B4F666D7D070B
:100010007F6F777C395E797100E80093610088E03A
:10002000009361000CEF0AB90FE707B903E005B9C7
:1000300050E010E030E00E944200103101F110FD6C
:100040004F9A03B100FF07C023B121FF0EC0512F0B
:10005000569558B9F2CF04E60A95F1F7189BFBCFF5
:1000600033950E9442004E9AE8CF24E62A95F1F794
:10007000199BFBCF3A950E9442004D9ADECF112783
:1000800033275527132FF0E0E8E0E10F149108958E
:00000001FF
